{
	"Mapping.sol": {
		"Mapping": {
			"abi": [
				{
					"inputs": [],
					"name": "deleteRegistered",
					"outputs": [],
					"stateMutability": "nonpayable",
					"type": "function"
				},
				{
					"inputs": [
						{
							"internalType": "address",
							"name": "",
							"type": "address"
						}
					],
					"name": "favNums",
					"outputs": [
						{
							"internalType": "int256",
							"name": "",
							"type": "int256"
						}
					],
					"stateMutability": "view",
					"type": "function"
				},
				{
					"inputs": [],
					"name": "isRegistered",
					"outputs": [
						{
							"internalType": "bool",
							"name": "",
							"type": "bool"
						}
					],
					"stateMutability": "view",
					"type": "function"
				},
				{
					"inputs": [
						{
							"internalType": "int256",
							"name": "_favNum",
							"type": "int256"
						}
					],
					"name": "register",
					"outputs": [],
					"stateMutability": "nonpayable",
					"type": "function"
				},
				{
					"inputs": [
						{
							"internalType": "address",
							"name": "",
							"type": "address"
						}
					],
					"name": "registered",
					"outputs": [
						{
							"internalType": "bool",
							"name": "",
							"type": "bool"
						}
					],
					"stateMutability": "view",
					"type": "function"
				}
			],
			"devdoc": {
				"kind": "dev",
				"methods": {},
				"version": 1
			},
			"evm": {
				"assembly": "    /* \"Mapping.sol\":66:1178  contract Mapping{... */\n  mstore(0x40, 0x80)\n  callvalue\n  dup1\n  iszero\n  tag_1\n  jumpi\n  0x00\n  dup1\n  revert\ntag_1:\n  pop\n  dataSize(sub_0)\n  dup1\n  dataOffset(sub_0)\n  0x00\n  codecopy\n  0x00\n  return\nstop\n\nsub_0: assembly {\n        /* \"Mapping.sol\":66:1178  contract Mapping{... */\n      mstore(0x40, 0x80)\n      callvalue\n      dup1\n      iszero\n      tag_1\n      jumpi\n      0x00\n      dup1\n      revert\n    tag_1:\n      pop\n      jumpi(tag_2, lt(calldatasize, 0x04))\n      shr(0xe0, calldataload(0x00))\n      dup1\n      0x22366844\n      eq\n      tag_3\n      jumpi\n      dup1\n      0xa31a9dc3\n      eq\n      tag_4\n      jumpi\n      dup1\n      0xb2dd5c07\n      eq\n      tag_5\n      jumpi\n      dup1\n      0xcce0b6a1\n      eq\n      tag_6\n      jumpi\n      dup1\n      0xe6059f96\n      eq\n      tag_7\n      jumpi\n    tag_2:\n      0x00\n      dup1\n      revert\n        /* \"Mapping.sol\":832:935  function isRegistered() public view returns(bool)... */\n    tag_3:\n      tag_8\n      tag_9\n      jump\t// in\n    tag_8:\n      mload(0x40)\n      tag_10\n      swap2\n      swap1\n      tag_11\n      jump\t// in\n    tag_10:\n      mload(0x40)\n      dup1\n      swap2\n      sub\n      swap1\n      return\n        /* \"Mapping.sol\":980:1175  function deleteRegistered() public... */\n    tag_4:\n      tag_12\n      tag_13\n      jump\t// in\n    tag_12:\n      stop\n        /* \"Mapping.sol\":91:134  mapping (address => bool) public registered */\n    tag_5:\n      tag_14\n      0x04\n      dup1\n      calldatasize\n      sub\n      dup2\n      add\n      swap1\n      tag_15\n      swap2\n      swap1\n      tag_16\n      jump\t// in\n    tag_15:\n      tag_17\n      jump\t// in\n    tag_14:\n      mload(0x40)\n      tag_18\n      swap2\n      swap1\n      tag_11\n      jump\t// in\n    tag_18:\n      mload(0x40)\n      dup1\n      swap2\n      sub\n      swap1\n      return\n        /* \"Mapping.sol\":215:257  mapping (address => int256) public favNums */\n    tag_6:\n      tag_19\n      0x04\n      dup1\n      calldatasize\n      sub\n      dup2\n      add\n      swap1\n      tag_20\n      swap2\n      swap1\n      tag_16\n      jump\t// in\n    tag_20:\n      tag_21\n      jump\t// in\n    tag_19:\n      mload(0x40)\n      tag_22\n      swap2\n      swap1\n      tag_23\n      jump\t// in\n    tag_22:\n      mload(0x40)\n      dup1\n      swap2\n      sub\n      swap1\n      return\n        /* \"Mapping.sol\":321:780  function register(int256 _favNum) public... */\n    tag_7:\n      tag_24\n      0x04\n      dup1\n      calldatasize\n      sub\n      dup2\n      add\n      swap1\n      tag_25\n      swap2\n      swap1\n      tag_26\n      jump\t// in\n    tag_25:\n      tag_27\n      jump\t// in\n    tag_24:\n      stop\n        /* \"Mapping.sol\":832:935  function isRegistered() public view returns(bool)... */\n    tag_9:\n        /* \"Mapping.sol\":876:880  bool */\n      0x00\n        /* \"Mapping.sol\":905:915  registered */\n      dup1\n        /* \"Mapping.sol\":905:927  registered[msg.sender] */\n      0x00\n        /* \"Mapping.sol\":916:926  msg.sender */\n      caller\n        /* \"Mapping.sol\":905:927  registered[msg.sender] */\n      0xffffffffffffffffffffffffffffffffffffffff\n      and\n      0xffffffffffffffffffffffffffffffffffffffff\n      and\n      dup2\n      mstore\n      0x20\n      add\n      swap1\n      dup2\n      mstore\n      0x20\n      add\n      0x00\n      keccak256\n      0x00\n      swap1\n      sload\n      swap1\n      0x0100\n      exp\n      swap1\n      div\n      0xff\n      and\n        /* \"Mapping.sol\":898:927  return registered[msg.sender] */\n      swap1\n      pop\n        /* \"Mapping.sol\":832:935  function isRegistered() public view returns(bool)... */\n      swap1\n      jump\t// out\n        /* \"Mapping.sol\":980:1175  function deleteRegistered() public... */\n    tag_13:\n        /* \"Mapping.sol\":1040:1054  isRegistered() */\n      tag_30\n        /* \"Mapping.sol\":1040:1052  isRegistered */\n      tag_9\n        /* \"Mapping.sol\":1040:1054  isRegistered() */\n      jump\t// in\n    tag_30:\n        /* \"Mapping.sol\":1031:1086  require (isRegistered(), \"Your user is not registered\") */\n      tag_31\n      jumpi\n      mload(0x40)\n      0x08c379a000000000000000000000000000000000000000000000000000000000\n      dup2\n      mstore\n      0x04\n      add\n      tag_32\n      swap1\n      tag_33\n      jump\t// in\n    tag_32:\n      mload(0x40)\n      dup1\n      swap2\n      sub\n      swap1\n      revert\n    tag_31:\n        /* \"Mapping.sol\":1104:1114  registered */\n      0x00\n        /* \"Mapping.sol\":1104:1126  registered[msg.sender] */\n      dup1\n        /* \"Mapping.sol\":1115:1125  msg.sender */\n      caller\n        /* \"Mapping.sol\":1104:1126  registered[msg.sender] */\n      0xffffffffffffffffffffffffffffffffffffffff\n      and\n      0xffffffffffffffffffffffffffffffffffffffff\n      and\n      dup2\n      mstore\n      0x20\n      add\n      swap1\n      dup2\n      mstore\n      0x20\n      add\n      0x00\n      keccak256\n      0x00\n        /* \"Mapping.sol\":1097:1127  delete(registered[msg.sender]) */\n      0x0100\n      exp\n      dup2\n      sload\n      swap1\n      0xff\n      mul\n      not\n      and\n      swap1\n      sstore\n        /* \"Mapping.sol\":1145:1152  favNums */\n      0x01\n        /* \"Mapping.sol\":1145:1164  favNums[msg.sender] */\n      0x00\n        /* \"Mapping.sol\":1153:1163  msg.sender */\n      caller\n        /* \"Mapping.sol\":1145:1164  favNums[msg.sender] */\n      0xffffffffffffffffffffffffffffffffffffffff\n      and\n      0xffffffffffffffffffffffffffffffffffffffff\n      and\n      dup2\n      mstore\n      0x20\n      add\n      swap1\n      dup2\n      mstore\n      0x20\n      add\n      0x00\n      keccak256\n        /* \"Mapping.sol\":1138:1165  delete(favNums[msg.sender]) */\n      0x00\n      swap1\n      sstore\n        /* \"Mapping.sol\":980:1175  function deleteRegistered() public... */\n      jump\t// out\n        /* \"Mapping.sol\":91:134  mapping (address => bool) public registered */\n    tag_17:\n      mstore(0x20, 0x00)\n      dup1\n      0x00\n      mstore\n      keccak256(0x00, 0x40)\n      0x00\n      swap2\n      pop\n      sload\n      swap1\n      0x0100\n      exp\n      swap1\n      div\n      0xff\n      and\n      dup2\n      jump\t// out\n        /* \"Mapping.sol\":215:257  mapping (address => int256) public favNums */\n    tag_21:\n      mstore(0x20, 0x01)\n      dup1\n      0x00\n      mstore\n      keccak256(0x00, 0x40)\n      0x00\n      swap2\n      pop\n      swap1\n      pop\n      sload\n      dup2\n      jump\t// out\n        /* \"Mapping.sol\":321:780  function register(int256 _favNum) public... */\n    tag_27:\n        /* \"Mapping.sol\":387:397  registered */\n      0x00\n        /* \"Mapping.sol\":387:409  registered[msg.sender] */\n      dup1\n        /* \"Mapping.sol\":398:408  msg.sender */\n      caller\n        /* \"Mapping.sol\":387:409  registered[msg.sender] */\n      0xffffffffffffffffffffffffffffffffffffffff\n      and\n      0xffffffffffffffffffffffffffffffffffffffff\n      and\n      dup2\n      mstore\n      0x20\n      add\n      swap1\n      dup2\n      mstore\n      0x20\n      add\n      0x00\n      keccak256\n      0x00\n      swap1\n      sload\n      swap1\n      0x0100\n      exp\n      swap1\n      div\n      0xff\n      and\n        /* \"Mapping.sol\":386:409  !registered[msg.sender] */\n      iszero\n        /* \"Mapping.sol\":378:441  require(!registered[msg.sender], \"Your user is not registered\") */\n      tag_35\n      jumpi\n      mload(0x40)\n      0x08c379a000000000000000000000000000000000000000000000000000000000\n      dup2\n      mstore\n      0x04\n      add\n      tag_36\n      swap1\n      tag_33\n      jump\t// in\n    tag_36:\n      mload(0x40)\n      dup1\n      swap2\n      sub\n      swap1\n      revert\n    tag_35:\n        /* \"Mapping.sol\":529:543  isRegistered() */\n      tag_37\n        /* \"Mapping.sol\":529:541  isRegistered */\n      tag_9\n        /* \"Mapping.sol\":529:543  isRegistered() */\n      jump\t// in\n    tag_37:\n        /* \"Mapping.sol\":528:543  !isRegistered() */\n      iszero\n        /* \"Mapping.sol\":520:575  require(!isRegistered(), \"Your user is not registered\") */\n      tag_38\n      jumpi\n      mload(0x40)\n      0x08c379a000000000000000000000000000000000000000000000000000000000\n      dup2\n      mstore\n      0x04\n      add\n      tag_39\n      swap1\n      tag_33\n      jump\t// in\n    tag_39:\n      mload(0x40)\n      dup1\n      swap2\n      sub\n      swap1\n      revert\n    tag_38:\n        /* \"Mapping.sol\":609:613  true */\n      0x01\n        /* \"Mapping.sol\":586:596  registered */\n      0x00\n        /* \"Mapping.sol\":586:608  registered[msg.sender] */\n      dup1\n        /* \"Mapping.sol\":597:607  msg.sender */\n      caller\n        /* \"Mapping.sol\":586:608  registered[msg.sender] */\n      0xffffffffffffffffffffffffffffffffffffffff\n      and\n      0xffffffffffffffffffffffffffffffffffffffff\n      and\n      dup2\n      mstore\n      0x20\n      add\n      swap1\n      dup2\n      mstore\n      0x20\n      add\n      0x00\n      keccak256\n      0x00\n        /* \"Mapping.sol\":586:613  registered[msg.sender]=true */\n      0x0100\n      exp\n      dup2\n      sload\n      dup2\n      0xff\n      mul\n      not\n      and\n      swap1\n      dup4\n      iszero\n      iszero\n      mul\n      or\n      swap1\n      sstore\n      pop\n        /* \"Mapping.sol\":765:772  _favNum */\n      dup1\n        /* \"Mapping.sol\":743:750  favNums */\n      0x01\n        /* \"Mapping.sol\":743:762  favNums[msg.sender] */\n      0x00\n        /* \"Mapping.sol\":751:761  msg.sender */\n      caller\n        /* \"Mapping.sol\":743:762  favNums[msg.sender] */\n      0xffffffffffffffffffffffffffffffffffffffff\n      and\n      0xffffffffffffffffffffffffffffffffffffffff\n      and\n      dup2\n      mstore\n      0x20\n      add\n      swap1\n      dup2\n      mstore\n      0x20\n      add\n      0x00\n      keccak256\n        /* \"Mapping.sol\":743:772  favNums[msg.sender] = _favNum */\n      dup2\n      swap1\n      sstore\n      pop\n        /* \"Mapping.sol\":321:780  function register(int256 _favNum) public... */\n      pop\n      jump\t// out\n        /* \"#utility.yul\":7:97   */\n    tag_40:\n        /* \"#utility.yul\":41:48   */\n      0x00\n        /* \"#utility.yul\":84:89   */\n      dup2\n        /* \"#utility.yul\":77:90   */\n      iszero\n        /* \"#utility.yul\":70:91   */\n      iszero\n        /* \"#utility.yul\":59:91   */\n      swap1\n      pop\n        /* \"#utility.yul\":7:97   */\n      swap2\n      swap1\n      pop\n      jump\t// out\n        /* \"#utility.yul\":103:212   */\n    tag_41:\n        /* \"#utility.yul\":184:205   */\n      tag_59\n        /* \"#utility.yul\":199:204   */\n      dup2\n        /* \"#utility.yul\":184:205   */\n      tag_40\n      jump\t// in\n    tag_59:\n        /* \"#utility.yul\":179:182   */\n      dup3\n        /* \"#utility.yul\":172:206   */\n      mstore\n        /* \"#utility.yul\":103:212   */\n      pop\n      pop\n      jump\t// out\n        /* \"#utility.yul\":218:428   */\n    tag_11:\n        /* \"#utility.yul\":305:309   */\n      0x00\n        /* \"#utility.yul\":343:345   */\n      0x20\n        /* \"#utility.yul\":332:341   */\n      dup3\n        /* \"#utility.yul\":328:346   */\n      add\n        /* \"#utility.yul\":320:346   */\n      swap1\n      pop\n        /* \"#utility.yul\":356:421   */\n      tag_61\n        /* \"#utility.yul\":418:419   */\n      0x00\n        /* \"#utility.yul\":407:416   */\n      dup4\n        /* \"#utility.yul\":403:420   */\n      add\n        /* \"#utility.yul\":394:400   */\n      dup5\n        /* \"#utility.yul\":356:421   */\n      tag_41\n      jump\t// in\n    tag_61:\n        /* \"#utility.yul\":218:428   */\n      swap3\n      swap2\n      pop\n      pop\n      jump\t// out\n        /* \"#utility.yul\":515:632   */\n    tag_43:\n        /* \"#utility.yul\":624:625   */\n      0x00\n        /* \"#utility.yul\":621:622   */\n      dup1\n        /* \"#utility.yul\":614:626   */\n      revert\n        /* \"#utility.yul\":761:887   */\n    tag_45:\n        /* \"#utility.yul\":798:805   */\n      0x00\n        /* \"#utility.yul\":838:880   */\n      0xffffffffffffffffffffffffffffffffffffffff\n        /* \"#utility.yul\":831:836   */\n      dup3\n        /* \"#utility.yul\":827:881   */\n      and\n        /* \"#utility.yul\":816:881   */\n      swap1\n      pop\n        /* \"#utility.yul\":761:887   */\n      swap2\n      swap1\n      pop\n      jump\t// out\n        /* \"#utility.yul\":893:989   */\n    tag_46:\n        /* \"#utility.yul\":930:937   */\n      0x00\n        /* \"#utility.yul\":959:983   */\n      tag_67\n        /* \"#utility.yul\":977:982   */\n      dup3\n        /* \"#utility.yul\":959:983   */\n      tag_45\n      jump\t// in\n    tag_67:\n        /* \"#utility.yul\":948:983   */\n      swap1\n      pop\n        /* \"#utility.yul\":893:989   */\n      swap2\n      swap1\n      pop\n      jump\t// out\n        /* \"#utility.yul\":995:1117   */\n    tag_47:\n        /* \"#utility.yul\":1068:1092   */\n      tag_69\n        /* \"#utility.yul\":1086:1091   */\n      dup2\n        /* \"#utility.yul\":1068:1092   */\n      tag_46\n      jump\t// in\n    tag_69:\n        /* \"#utility.yul\":1061:1066   */\n      dup2\n        /* \"#utility.yul\":1058:1093   */\n      eq\n        /* \"#utility.yul\":1048:1111   */\n      tag_70\n      jumpi\n        /* \"#utility.yul\":1107:1108   */\n      0x00\n        /* \"#utility.yul\":1104:1105   */\n      dup1\n        /* \"#utility.yul\":1097:1109   */\n      revert\n        /* \"#utility.yul\":1048:1111   */\n    tag_70:\n        /* \"#utility.yul\":995:1117   */\n      pop\n      jump\t// out\n        /* \"#utility.yul\":1123:1262   */\n    tag_48:\n        /* \"#utility.yul\":1169:1174   */\n      0x00\n        /* \"#utility.yul\":1207:1213   */\n      dup2\n        /* \"#utility.yul\":1194:1214   */\n      calldataload\n        /* \"#utility.yul\":1185:1214   */\n      swap1\n      pop\n        /* \"#utility.yul\":1223:1256   */\n      tag_72\n        /* \"#utility.yul\":1250:1255   */\n      dup2\n        /* \"#utility.yul\":1223:1256   */\n      tag_47\n      jump\t// in\n    tag_72:\n        /* \"#utility.yul\":1123:1262   */\n      swap3\n      swap2\n      pop\n      pop\n      jump\t// out\n        /* \"#utility.yul\":1268:1597   */\n    tag_16:\n        /* \"#utility.yul\":1327:1333   */\n      0x00\n        /* \"#utility.yul\":1376:1378   */\n      0x20\n        /* \"#utility.yul\":1364:1373   */\n      dup3\n        /* \"#utility.yul\":1355:1362   */\n      dup5\n        /* \"#utility.yul\":1351:1374   */\n      sub\n        /* \"#utility.yul\":1347:1379   */\n      slt\n        /* \"#utility.yul\":1344:1463   */\n      iszero\n      tag_74\n      jumpi\n        /* \"#utility.yul\":1382:1461   */\n      tag_75\n      tag_43\n      jump\t// in\n    tag_75:\n        /* \"#utility.yul\":1344:1463   */\n    tag_74:\n        /* \"#utility.yul\":1502:1503   */\n      0x00\n        /* \"#utility.yul\":1527:1580   */\n      tag_76\n        /* \"#utility.yul\":1572:1579   */\n      dup5\n        /* \"#utility.yul\":1563:1569   */\n      dup3\n        /* \"#utility.yul\":1552:1561   */\n      dup6\n        /* \"#utility.yul\":1548:1570   */\n      add\n        /* \"#utility.yul\":1527:1580   */\n      tag_48\n      jump\t// in\n    tag_76:\n        /* \"#utility.yul\":1517:1580   */\n      swap2\n      pop\n        /* \"#utility.yul\":1473:1590   */\n      pop\n        /* \"#utility.yul\":1268:1597   */\n      swap3\n      swap2\n      pop\n      pop\n      jump\t// out\n        /* \"#utility.yul\":1603:1679   */\n    tag_49:\n        /* \"#utility.yul\":1639:1646   */\n      0x00\n        /* \"#utility.yul\":1668:1673   */\n      dup2\n        /* \"#utility.yul\":1657:1673   */\n      swap1\n      pop\n        /* \"#utility.yul\":1603:1679   */\n      swap2\n      swap1\n      pop\n      jump\t// out\n        /* \"#utility.yul\":1685:1800   */\n    tag_50:\n        /* \"#utility.yul\":1770:1793   */\n      tag_79\n        /* \"#utility.yul\":1787:1792   */\n      dup2\n        /* \"#utility.yul\":1770:1793   */\n      tag_49\n      jump\t// in\n    tag_79:\n        /* \"#utility.yul\":1765:1768   */\n      dup3\n        /* \"#utility.yul\":1758:1794   */\n      mstore\n        /* \"#utility.yul\":1685:1800   */\n      pop\n      pop\n      jump\t// out\n        /* \"#utility.yul\":1806:2024   */\n    tag_23:\n        /* \"#utility.yul\":1897:1901   */\n      0x00\n        /* \"#utility.yul\":1935:1937   */\n      0x20\n        /* \"#utility.yul\":1924:1933   */\n      dup3\n        /* \"#utility.yul\":1920:1938   */\n      add\n        /* \"#utility.yul\":1912:1938   */\n      swap1\n      pop\n        /* \"#utility.yul\":1948:2017   */\n      tag_81\n        /* \"#utility.yul\":2014:2015   */\n      0x00\n        /* \"#utility.yul\":2003:2012   */\n      dup4\n        /* \"#utility.yul\":1999:2016   */\n      add\n        /* \"#utility.yul\":1990:1996   */\n      dup5\n        /* \"#utility.yul\":1948:2017   */\n      tag_50\n      jump\t// in\n    tag_81:\n        /* \"#utility.yul\":1806:2024   */\n      swap3\n      swap2\n      pop\n      pop\n      jump\t// out\n        /* \"#utility.yul\":2030:2150   */\n    tag_51:\n        /* \"#utility.yul\":2102:2125   */\n      tag_83\n        /* \"#utility.yul\":2119:2124   */\n      dup2\n        /* \"#utility.yul\":2102:2125   */\n      tag_49\n      jump\t// in\n    tag_83:\n        /* \"#utility.yul\":2095:2100   */\n      dup2\n        /* \"#utility.yul\":2092:2126   */\n      eq\n        /* \"#utility.yul\":2082:2144   */\n      tag_84\n      jumpi\n        /* \"#utility.yul\":2140:2141   */\n      0x00\n        /* \"#utility.yul\":2137:2138   */\n      dup1\n        /* \"#utility.yul\":2130:2142   */\n      revert\n        /* \"#utility.yul\":2082:2144   */\n    tag_84:\n        /* \"#utility.yul\":2030:2150   */\n      pop\n      jump\t// out\n        /* \"#utility.yul\":2156:2293   */\n    tag_52:\n        /* \"#utility.yul\":2201:2206   */\n      0x00\n        /* \"#utility.yul\":2239:2245   */\n      dup2\n        /* \"#utility.yul\":2226:2246   */\n      calldataload\n        /* \"#utility.yul\":2217:2246   */\n      swap1\n      pop\n        /* \"#utility.yul\":2255:2287   */\n      tag_86\n        /* \"#utility.yul\":2281:2286   */\n      dup2\n        /* \"#utility.yul\":2255:2287   */\n      tag_51\n      jump\t// in\n    tag_86:\n        /* \"#utility.yul\":2156:2293   */\n      swap3\n      swap2\n      pop\n      pop\n      jump\t// out\n        /* \"#utility.yul\":2299:2626   */\n    tag_26:\n        /* \"#utility.yul\":2357:2363   */\n      0x00\n        /* \"#utility.yul\":2406:2408   */\n      0x20\n        /* \"#utility.yul\":2394:2403   */\n      dup3\n        /* \"#utility.yul\":2385:2392   */\n      dup5\n        /* \"#utility.yul\":2381:2404   */\n      sub\n        /* \"#utility.yul\":2377:2409   */\n      slt\n        /* \"#utility.yul\":2374:2493   */\n      iszero\n      tag_88\n      jumpi\n        /* \"#utility.yul\":2412:2491   */\n      tag_89\n      tag_43\n      jump\t// in\n    tag_89:\n        /* \"#utility.yul\":2374:2493   */\n    tag_88:\n        /* \"#utility.yul\":2532:2533   */\n      0x00\n        /* \"#utility.yul\":2557:2609   */\n      tag_90\n        /* \"#utility.yul\":2601:2608   */\n      dup5\n        /* \"#utility.yul\":2592:2598   */\n      dup3\n        /* \"#utility.yul\":2581:2590   */\n      dup6\n        /* \"#utility.yul\":2577:2599   */\n      add\n        /* \"#utility.yul\":2557:2609   */\n      tag_52\n      jump\t// in\n    tag_90:\n        /* \"#utility.yul\":2547:2609   */\n      swap2\n      pop\n        /* \"#utility.yul\":2503:2619   */\n      pop\n        /* \"#utility.yul\":2299:2626   */\n      swap3\n      swap2\n      pop\n      pop\n      jump\t// out\n        /* \"#utility.yul\":2632:2801   */\n    tag_53:\n        /* \"#utility.yul\":2716:2727   */\n      0x00\n        /* \"#utility.yul\":2750:2756   */\n      dup3\n        /* \"#utility.yul\":2745:2748   */\n      dup3\n        /* \"#utility.yul\":2738:2757   */\n      mstore\n        /* \"#utility.yul\":2790:2794   */\n      0x20\n        /* \"#utility.yul\":2785:2788   */\n      dup3\n        /* \"#utility.yul\":2781:2795   */\n      add\n        /* \"#utility.yul\":2766:2795   */\n      swap1\n      pop\n        /* \"#utility.yul\":2632:2801   */\n      swap3\n      swap2\n      pop\n      pop\n      jump\t// out\n        /* \"#utility.yul\":2807:2984   */\n    tag_54:\n        /* \"#utility.yul\":2947:2976   */\n      0x596f75722075736572206973206e6f7420726567697374657265640000000000\n        /* \"#utility.yul\":2943:2944   */\n      0x00\n        /* \"#utility.yul\":2935:2941   */\n      dup3\n        /* \"#utility.yul\":2931:2945   */\n      add\n        /* \"#utility.yul\":2924:2977   */\n      mstore\n        /* \"#utility.yul\":2807:2984   */\n      pop\n      jump\t// out\n        /* \"#utility.yul\":2990:3356   */\n    tag_55:\n        /* \"#utility.yul\":3132:3135   */\n      0x00\n        /* \"#utility.yul\":3153:3220   */\n      tag_94\n        /* \"#utility.yul\":3217:3219   */\n      0x1b\n        /* \"#utility.yul\":3212:3215   */\n      dup4\n        /* \"#utility.yul\":3153:3220   */\n      tag_53\n      jump\t// in\n    tag_94:\n        /* \"#utility.yul\":3146:3220   */\n      swap2\n      pop\n        /* \"#utility.yul\":3229:3322   */\n      tag_95\n        /* \"#utility.yul\":3318:3321   */\n      dup3\n        /* \"#utility.yul\":3229:3322   */\n      tag_54\n      jump\t// in\n    tag_95:\n        /* \"#utility.yul\":3347:3349   */\n      0x20\n        /* \"#utility.yul\":3342:3345   */\n      dup3\n        /* \"#utility.yul\":3338:3350   */\n      add\n        /* \"#utility.yul\":3331:3350   */\n      swap1\n      pop\n        /* \"#utility.yul\":2990:3356   */\n      swap2\n      swap1\n      pop\n      jump\t// out\n        /* \"#utility.yul\":3362:3781   */\n    tag_33:\n        /* \"#utility.yul\":3528:3532   */\n      0x00\n        /* \"#utility.yul\":3566:3568   */\n      0x20\n        /* \"#utility.yul\":3555:3564   */\n      dup3\n        /* \"#utility.yul\":3551:3569   */\n      add\n        /* \"#utility.yul\":3543:3569   */\n      swap1\n      pop\n        /* \"#utility.yul\":3615:3624   */\n      dup2\n        /* \"#utility.yul\":3609:3613   */\n      dup2\n        /* \"#utility.yul\":3605:3625   */\n      sub\n        /* \"#utility.yul\":3601:3602   */\n      0x00\n        /* \"#utility.yul\":3590:3599   */\n      dup4\n        /* \"#utility.yul\":3586:3603   */\n      add\n        /* \"#utility.yul\":3579:3626   */\n      mstore\n        /* \"#utility.yul\":3643:3774   */\n      tag_97\n        /* \"#utility.yul\":3769:3773   */\n      dup2\n        /* \"#utility.yul\":3643:3774   */\n      tag_55\n      jump\t// in\n    tag_97:\n        /* \"#utility.yul\":3635:3774   */\n      swap1\n      pop\n        /* \"#utility.yul\":3362:3781   */\n      swap2\n      swap1\n      pop\n      jump\t// out\n\n    auxdata: 0xa2646970667358221220cd962f29b7179756aa90339826037734d35e8e03a4f21c2782142d4fa8869b3464736f6c634300081a0033\n}\n",
				"bytecode": {
					"linkReferences": {},
					"object": "6080604052348015600e575f80fd5b506105ab8061001c5f395ff3fe608060405234801561000f575f80fd5b5060043610610055575f3560e01c80632236684414610059578063a31a9dc314610077578063b2dd5c0714610081578063cce0b6a1146100b1578063e6059f96146100e1575b5f80fd5b6100616100fd565b60405161006e91906103d5565b60405180910390f35b61007f61014c565b005b61009b6004803603810190610096919061044c565b610220565b6040516100a891906103d5565b60405180910390f35b6100cb60048036038101906100c6919061044c565b61023c565b6040516100d8919061048f565b60405180910390f35b6100fb60048036038101906100f691906104d2565b610251565b005b5f805f3373ffffffffffffffffffffffffffffffffffffffff1673ffffffffffffffffffffffffffffffffffffffff1681526020019081526020015f205f9054906101000a900460ff16905090565b6101546100fd565b610193576040517f08c379a000000000000000000000000000000000000000000000000000000000815260040161018a90610557565b60405180910390fd5b5f803373ffffffffffffffffffffffffffffffffffffffff1673ffffffffffffffffffffffffffffffffffffffff1681526020019081526020015f205f6101000a81549060ff021916905560015f3373ffffffffffffffffffffffffffffffffffffffff1673ffffffffffffffffffffffffffffffffffffffff1681526020019081526020015f205f9055565b5f602052805f5260405f205f915054906101000a900460ff1681565b6001602052805f5260405f205f915090505481565b5f803373ffffffffffffffffffffffffffffffffffffffff1673ffffffffffffffffffffffffffffffffffffffff1681526020019081526020015f205f9054906101000a900460ff16156102da576040517f08c379a00000000000000000000000000000000000000000000000000000000081526004016102d190610557565b60405180910390fd5b6102e26100fd565b15610322576040517f08c379a000000000000000000000000000000000000000000000000000000000815260040161031990610557565b60405180910390fd5b60015f803373ffffffffffffffffffffffffffffffffffffffff1673ffffffffffffffffffffffffffffffffffffffff1681526020019081526020015f205f6101000a81548160ff0219169083151502179055508060015f3373ffffffffffffffffffffffffffffffffffffffff1673ffffffffffffffffffffffffffffffffffffffff1681526020019081526020015f208190555050565b5f8115159050919050565b6103cf816103bb565b82525050565b5f6020820190506103e85f8301846103c6565b92915050565b5f80fd5b5f73ffffffffffffffffffffffffffffffffffffffff82169050919050565b5f61041b826103f2565b9050919050565b61042b81610411565b8114610435575f80fd5b50565b5f8135905061044681610422565b92915050565b5f60208284031215610461576104606103ee565b5b5f61046e84828501610438565b91505092915050565b5f819050919050565b61048981610477565b82525050565b5f6020820190506104a25f830184610480565b92915050565b6104b181610477565b81146104bb575f80fd5b50565b5f813590506104cc816104a8565b92915050565b5f602082840312156104e7576104e66103ee565b5b5f6104f4848285016104be565b91505092915050565b5f82825260208201905092915050565b7f596f75722075736572206973206e6f74207265676973746572656400000000005f82015250565b5f610541601b836104fd565b915061054c8261050d565b602082019050919050565b5f6020820190508181035f83015261056e81610535565b905091905056fea2646970667358221220cd962f29b7179756aa90339826037734d35e8e03a4f21c2782142d4fa8869b3464736f6c634300081a0033",
					"opcodes": "PUSH1 0x80 PUSH1 0x40 MSTORE CALLVALUE DUP1 ISZERO PUSH1 0xE JUMPI PUSH0 DUP1 REVERT JUMPDEST POP PUSH2 0x5AB DUP1 PUSH2 0x1C PUSH0 CODECOPY PUSH0 RETURN INVALID PUSH1 0x80 PUSH1 0x40 MSTORE CALLVALUE DUP1 ISZERO PUSH2 0xF JUMPI PUSH0 DUP1 REVERT JUMPDEST POP PUSH1 0x4 CALLDATASIZE LT PUSH2 0x55 JUMPI PUSH0 CALLDATALOAD PUSH1 0xE0 SHR DUP1 PUSH4 0x22366844 EQ PUSH2 0x59 JUMPI DUP1 PUSH4 0xA31A9DC3 EQ PUSH2 0x77 JUMPI DUP1 PUSH4 0xB2DD5C07 EQ PUSH2 0x81 JUMPI DUP1 PUSH4 0xCCE0B6A1 EQ PUSH2 0xB1 JUMPI DUP1 PUSH4 0xE6059F96 EQ PUSH2 0xE1 JUMPI JUMPDEST PUSH0 DUP1 REVERT JUMPDEST PUSH2 0x61 PUSH2 0xFD JUMP JUMPDEST PUSH1 0x40 MLOAD PUSH2 0x6E SWAP2 SWAP1 PUSH2 0x3D5 JUMP JUMPDEST PUSH1 0x40 MLOAD DUP1 SWAP2 SUB SWAP1 RETURN JUMPDEST PUSH2 0x7F PUSH2 0x14C JUMP JUMPDEST STOP JUMPDEST PUSH2 0x9B PUSH1 0x4 DUP1 CALLDATASIZE SUB DUP2 ADD SWAP1 PUSH2 0x96 SWAP2 SWAP1 PUSH2 0x44C JUMP JUMPDEST PUSH2 0x220 JUMP JUMPDEST PUSH1 0x40 MLOAD PUSH2 0xA8 SWAP2 SWAP1 PUSH2 0x3D5 JUMP JUMPDEST PUSH1 0x40 MLOAD DUP1 SWAP2 SUB SWAP1 RETURN JUMPDEST PUSH2 0xCB PUSH1 0x4 DUP1 CALLDATASIZE SUB DUP2 ADD SWAP1 PUSH2 0xC6 SWAP2 SWAP1 PUSH2 0x44C JUMP JUMPDEST PUSH2 0x23C JUMP JUMPDEST PUSH1 0x40 MLOAD PUSH2 0xD8 SWAP2 SWAP1 PUSH2 0x48F JUMP JUMPDEST PUSH1 0x40 MLOAD DUP1 SWAP2 SUB SWAP1 RETURN JUMPDEST PUSH2 0xFB PUSH1 0x4 DUP1 CALLDATASIZE SUB DUP2 ADD SWAP1 PUSH2 0xF6 SWAP2 SWAP1 PUSH2 0x4D2 JUMP JUMPDEST PUSH2 0x251 JUMP JUMPDEST STOP JUMPDEST PUSH0 DUP1 PUSH0 CALLER PUSH20 0xFFFFFFFFFFFFFFFFFFFFFFFFFFFFFFFFFFFFFFFF AND PUSH20 0xFFFFFFFFFFFFFFFFFFFFFFFFFFFFFFFFFFFFFFFF AND DUP2 MSTORE PUSH1 0x20 ADD SWAP1 DUP2 MSTORE PUSH1 0x20 ADD PUSH0 KECCAK256 PUSH0 SWAP1 SLOAD SWAP1 PUSH2 0x100 EXP SWAP1 DIV PUSH1 0xFF AND SWAP1 POP SWAP1 JUMP JUMPDEST PUSH2 0x154 PUSH2 0xFD JUMP JUMPDEST PUSH2 0x193 JUMPI PUSH1 0x40 MLOAD PUSH32 0x8C379A000000000000000000000000000000000000000000000000000000000 DUP2 MSTORE PUSH1 0x4 ADD PUSH2 0x18A SWAP1 PUSH2 0x557 JUMP JUMPDEST PUSH1 0x40 MLOAD DUP1 SWAP2 SUB SWAP1 REVERT JUMPDEST PUSH0 DUP1 CALLER PUSH20 0xFFFFFFFFFFFFFFFFFFFFFFFFFFFFFFFFFFFFFFFF AND PUSH20 0xFFFFFFFFFFFFFFFFFFFFFFFFFFFFFFFFFFFFFFFF AND DUP2 MSTORE PUSH1 0x20 ADD SWAP1 DUP2 MSTORE PUSH1 0x20 ADD PUSH0 KECCAK256 PUSH0 PUSH2 0x100 EXP DUP2 SLOAD SWAP1 PUSH1 0xFF MUL NOT AND SWAP1 SSTORE PUSH1 0x1 PUSH0 CALLER PUSH20 0xFFFFFFFFFFFFFFFFFFFFFFFFFFFFFFFFFFFFFFFF AND PUSH20 0xFFFFFFFFFFFFFFFFFFFFFFFFFFFFFFFFFFFFFFFF AND DUP2 MSTORE PUSH1 0x20 ADD SWAP1 DUP2 MSTORE PUSH1 0x20 ADD PUSH0 KECCAK256 PUSH0 SWAP1 SSTORE JUMP JUMPDEST PUSH0 PUSH1 0x20 MSTORE DUP1 PUSH0 MSTORE PUSH1 0x40 PUSH0 KECCAK256 PUSH0 SWAP2 POP SLOAD SWAP1 PUSH2 0x100 EXP SWAP1 DIV PUSH1 0xFF AND DUP2 JUMP JUMPDEST PUSH1 0x1 PUSH1 0x20 MSTORE DUP1 PUSH0 MSTORE PUSH1 0x40 PUSH0 KECCAK256 PUSH0 SWAP2 POP SWAP1 POP SLOAD DUP2 JUMP JUMPDEST PUSH0 DUP1 CALLER PUSH20 0xFFFFFFFFFFFFFFFFFFFFFFFFFFFFFFFFFFFFFFFF AND PUSH20 0xFFFFFFFFFFFFFFFFFFFFFFFFFFFFFFFFFFFFFFFF AND DUP2 MSTORE PUSH1 0x20 ADD SWAP1 DUP2 MSTORE PUSH1 0x20 ADD PUSH0 KECCAK256 PUSH0 SWAP1 SLOAD SWAP1 PUSH2 0x100 EXP SWAP1 DIV PUSH1 0xFF AND ISZERO PUSH2 0x2DA JUMPI PUSH1 0x40 MLOAD PUSH32 0x8C379A000000000000000000000000000000000000000000000000000000000 DUP2 MSTORE PUSH1 0x4 ADD PUSH2 0x2D1 SWAP1 PUSH2 0x557 JUMP JUMPDEST PUSH1 0x40 MLOAD DUP1 SWAP2 SUB SWAP1 REVERT JUMPDEST PUSH2 0x2E2 PUSH2 0xFD JUMP JUMPDEST ISZERO PUSH2 0x322 JUMPI PUSH1 0x40 MLOAD PUSH32 0x8C379A000000000000000000000000000000000000000000000000000000000 DUP2 MSTORE PUSH1 0x4 ADD PUSH2 0x319 SWAP1 PUSH2 0x557 JUMP JUMPDEST PUSH1 0x40 MLOAD DUP1 SWAP2 SUB SWAP1 REVERT JUMPDEST PUSH1 0x1 PUSH0 DUP1 CALLER PUSH20 0xFFFFFFFFFFFFFFFFFFFFFFFFFFFFFFFFFFFFFFFF AND PUSH20 0xFFFFFFFFFFFFFFFFFFFFFFFFFFFFFFFFFFFFFFFF AND DUP2 MSTORE PUSH1 0x20 ADD SWAP1 DUP2 MSTORE PUSH1 0x20 ADD PUSH0 KECCAK256 PUSH0 PUSH2 0x100 EXP DUP2 SLOAD DUP2 PUSH1 0xFF MUL NOT AND SWAP1 DUP4 ISZERO ISZERO MUL OR SWAP1 SSTORE POP DUP1 PUSH1 0x1 PUSH0 CALLER PUSH20 0xFFFFFFFFFFFFFFFFFFFFFFFFFFFFFFFFFFFFFFFF AND PUSH20 0xFFFFFFFFFFFFFFFFFFFFFFFFFFFFFFFFFFFFFFFF AND DUP2 MSTORE PUSH1 0x20 ADD SWAP1 DUP2 MSTORE PUSH1 0x20 ADD PUSH0 KECCAK256 DUP2 SWAP1 SSTORE POP POP JUMP JUMPDEST PUSH0 DUP2 ISZERO ISZERO SWAP1 POP SWAP2 SWAP1 POP JUMP JUMPDEST PUSH2 0x3CF DUP2 PUSH2 0x3BB JUMP JUMPDEST DUP3 MSTORE POP POP JUMP JUMPDEST PUSH0 PUSH1 0x20 DUP3 ADD SWAP1 POP PUSH2 0x3E8 PUSH0 DUP4 ADD DUP5 PUSH2 0x3C6 JUMP JUMPDEST SWAP3 SWAP2 POP POP JUMP JUMPDEST PUSH0 DUP1 REVERT JUMPDEST PUSH0 PUSH20 0xFFFFFFFFFFFFFFFFFFFFFFFFFFFFFFFFFFFFFFFF DUP3 AND SWAP1 POP SWAP2 SWAP1 POP JUMP JUMPDEST PUSH0 PUSH2 0x41B DUP3 PUSH2 0x3F2 JUMP JUMPDEST SWAP1 POP SWAP2 SWAP1 POP JUMP JUMPDEST PUSH2 0x42B DUP2 PUSH2 0x411 JUMP JUMPDEST DUP2 EQ PUSH2 0x435 JUMPI PUSH0 DUP1 REVERT JUMPDEST POP JUMP JUMPDEST PUSH0 DUP2 CALLDATALOAD SWAP1 POP PUSH2 0x446 DUP2 PUSH2 0x422 JUMP JUMPDEST SWAP3 SWAP2 POP POP JUMP JUMPDEST PUSH0 PUSH1 0x20 DUP3 DUP5 SUB SLT ISZERO PUSH2 0x461 JUMPI PUSH2 0x460 PUSH2 0x3EE JUMP JUMPDEST JUMPDEST PUSH0 PUSH2 0x46E DUP5 DUP3 DUP6 ADD PUSH2 0x438 JUMP JUMPDEST SWAP2 POP POP SWAP3 SWAP2 POP POP JUMP JUMPDEST PUSH0 DUP2 SWAP1 POP SWAP2 SWAP1 POP JUMP JUMPDEST PUSH2 0x489 DUP2 PUSH2 0x477 JUMP JUMPDEST DUP3 MSTORE POP POP JUMP JUMPDEST PUSH0 PUSH1 0x20 DUP3 ADD SWAP1 POP PUSH2 0x4A2 PUSH0 DUP4 ADD DUP5 PUSH2 0x480 JUMP JUMPDEST SWAP3 SWAP2 POP POP JUMP JUMPDEST PUSH2 0x4B1 DUP2 PUSH2 0x477 JUMP JUMPDEST DUP2 EQ PUSH2 0x4BB JUMPI PUSH0 DUP1 REVERT JUMPDEST POP JUMP JUMPDEST PUSH0 DUP2 CALLDATALOAD SWAP1 POP PUSH2 0x4CC DUP2 PUSH2 0x4A8 JUMP JUMPDEST SWAP3 SWAP2 POP POP JUMP JUMPDEST PUSH0 PUSH1 0x20 DUP3 DUP5 SUB SLT ISZERO PUSH2 0x4E7 JUMPI PUSH2 0x4E6 PUSH2 0x3EE JUMP JUMPDEST JUMPDEST PUSH0 PUSH2 0x4F4 DUP5 DUP3 DUP6 ADD PUSH2 0x4BE JUMP JUMPDEST SWAP2 POP POP SWAP3 SWAP2 POP POP JUMP JUMPDEST PUSH0 DUP3 DUP3 MSTORE PUSH1 0x20 DUP3 ADD SWAP1 POP SWAP3 SWAP2 POP POP JUMP JUMPDEST PUSH32 0x596F75722075736572206973206E6F7420726567697374657265640000000000 PUSH0 DUP3 ADD MSTORE POP JUMP JUMPDEST PUSH0 PUSH2 0x541 PUSH1 0x1B DUP4 PUSH2 0x4FD JUMP JUMPDEST SWAP2 POP PUSH2 0x54C DUP3 PUSH2 0x50D JUMP JUMPDEST PUSH1 0x20 DUP3 ADD SWAP1 POP SWAP2 SWAP1 POP JUMP JUMPDEST PUSH0 PUSH1 0x20 DUP3 ADD SWAP1 POP DUP2 DUP2 SUB PUSH0 DUP4 ADD MSTORE PUSH2 0x56E DUP2 PUSH2 0x535 JUMP JUMPDEST SWAP1 POP SWAP2 SWAP1 POP JUMP INVALID LOG2 PUSH5 0x6970667358 0x22 SLT KECCAK256 0xCD SWAP7 0x2F 0x29 0xB7 OR SWAP8 JUMP 0xAA SWAP1 CALLER SWAP9 0x26 SUB PUSH24 0x34D35E8E03A4F21C2782142D4FA8869B3464736F6C634300 ADDMOD BYTE STOP CALLER "
				},
				"gasEstimates": {
					"creation": {
						"codeDepositCost": "290200",
						"executionCost": "329",
						"totalCost": "290529"
					},
					"external": {
						"deleteRegistered()": "31839",
						"favNums(address)": "2846",
						"isRegistered()": "2538",
						"register(int256)": "51539",
						"registered(address)": "2854"
					}
				},
				"methodIdentifiers": {
					"deleteRegistered()": "a31a9dc3",
					"favNums(address)": "cce0b6a1",
					"isRegistered()": "22366844",
					"register(int256)": "e6059f96",
					"registered(address)": "b2dd5c07"
				}
			},
			"storageLayout": {
				"storage": [
					{
						"astId": 5,
						"contract": "Mapping.sol:Mapping",
						"label": "registered",
						"offset": 0,
						"slot": "0",
						"type": "t_mapping(t_address,t_bool)"
					},
					{
						"astId": 9,
						"contract": "Mapping.sol:Mapping",
						"label": "favNums",
						"offset": 0,
						"slot": "1",
						"type": "t_mapping(t_address,t_int256)"
					}
				],
				"types": {
					"t_address": {
						"encoding": "inplace",
						"label": "address",
						"numberOfBytes": "20"
					},
					"t_bool": {
						"encoding": "inplace",
						"label": "bool",
						"numberOfBytes": "1"
					},
					"t_int256": {
						"encoding": "inplace",
						"label": "int256",
						"numberOfBytes": "32"
					},
					"t_mapping(t_address,t_bool)": {
						"encoding": "mapping",
						"key": "t_address",
						"label": "mapping(address => bool)",
						"numberOfBytes": "32",
						"value": "t_bool"
					},
					"t_mapping(t_address,t_int256)": {
						"encoding": "mapping",
						"key": "t_address",
						"label": "mapping(address => int256)",
						"numberOfBytes": "32",
						"value": "t_int256"
					}
				}
			},
			"userdoc": {
				"kind": "user",
				"methods": {},
				"version": 1
			}
		}
	}
}