{
	"Mapping.sol": {
		"NestedMapping": {
			"abi": [
				{
					"inputs": [
						{
							"internalType": "address",
							"name": "",
							"type": "address"
						},
						{
							"internalType": "address",
							"name": "",
							"type": "address"
						}
					],
					"name": "debts",
					"outputs": [
						{
							"internalType": "uint256",
							"name": "",
							"type": "uint256"
						}
					],
					"stateMutability": "view",
					"type": "function"
				},
				{
					"inputs": [
						{
							"internalType": "address",
							"name": "_borrower",
							"type": "address"
						},
						{
							"internalType": "uint256",
							"name": "_amount",
							"type": "uint256"
						}
					],
					"name": "decDebt",
					"outputs": [],
					"stateMutability": "nonpayable",
					"type": "function"
				},
				{
					"inputs": [
						{
							"internalType": "address",
							"name": "_borrower",
							"type": "address"
						}
					],
					"name": "getDebt",
					"outputs": [
						{
							"internalType": "uint256",
							"name": "",
							"type": "uint256"
						}
					],
					"stateMutability": "view",
					"type": "function"
				},
				{
					"inputs": [
						{
							"internalType": "address",
							"name": "_borrower",
							"type": "address"
						},
						{
							"internalType": "uint256",
							"name": "_amount",
							"type": "uint256"
						}
					],
					"name": "incDebt",
					"outputs": [],
					"stateMutability": "nonpayable",
					"type": "function"
				}
			],
			"devdoc": {
				"kind": "dev",
				"methods": {},
				"version": 1
			},
			"evm": {
				"assembly": "    /* \"Mapping.sol\":1229:2243  contract NestedMapping... */\n  mstore(0x40, 0x80)\n  callvalue\n  dup1\n  iszero\n  tag_1\n  jumpi\n  0x00\n  dup1\n  revert\ntag_1:\n  pop\n  dataSize(sub_0)\n  dup1\n  dataOffset(sub_0)\n  0x00\n  codecopy\n  0x00\n  return\nstop\n\nsub_0: assembly {\n        /* \"Mapping.sol\":1229:2243  contract NestedMapping... */\n      mstore(0x40, 0x80)\n      callvalue\n      dup1\n      iszero\n      tag_1\n      jumpi\n      0x00\n      dup1\n      revert\n    tag_1:\n      pop\n      jumpi(tag_2, lt(calldatasize, 0x04))\n      shr(0xe0, calldataload(0x00))\n      dup1\n      0x4ac1c33d\n      eq\n      tag_3\n      jumpi\n      dup1\n      0x8d1e48da\n      eq\n      tag_4\n      jumpi\n      dup1\n      0x938698a9\n      eq\n      tag_5\n      jumpi\n      dup1\n      0x9a78e72e\n      eq\n      tag_6\n      jumpi\n    tag_2:\n      0x00\n      dup1\n      revert\n        /* \"Mapping.sol\":1268:1328  mapping(address => mapping(address => uint256)) public debts */\n    tag_3:\n      tag_7\n      0x04\n      dup1\n      calldatasize\n      sub\n      dup2\n      add\n      swap1\n      tag_8\n      swap2\n      swap1\n      tag_9\n      jump\t// in\n    tag_8:\n      tag_10\n      jump\t// in\n    tag_7:\n      mload(0x40)\n      tag_11\n      swap2\n      swap1\n      tag_12\n      jump\t// in\n    tag_11:\n      mload(0x40)\n      dup1\n      swap2\n      sub\n      swap1\n      return\n        /* \"Mapping.sol\":1550:1741  function incDebt(address _borrower, uint256 _amount) public ... */\n    tag_4:\n      tag_13\n      0x04\n      dup1\n      calldatasize\n      sub\n      dup2\n      add\n      swap1\n      tag_14\n      swap2\n      swap1\n      tag_15\n      jump\t// in\n    tag_14:\n      tag_16\n      jump\t// in\n    tag_13:\n      stop\n        /* \"Mapping.sol\":1753:2085  function decDebt(address _borrower, uint256 _amount) public ... */\n    tag_5:\n      tag_17\n      0x04\n      dup1\n      calldatasize\n      sub\n      dup2\n      add\n      swap1\n      tag_18\n      swap2\n      swap1\n      tag_15\n      jump\t// in\n    tag_18:\n      tag_19\n      jump\t// in\n    tag_17:\n      stop\n        /* \"Mapping.sol\":2097:2236  function getDebt(address _borrower) public view returns (uint256)... */\n    tag_6:\n      tag_20\n      0x04\n      dup1\n      calldatasize\n      sub\n      dup2\n      add\n      swap1\n      tag_21\n      swap2\n      swap1\n      tag_22\n      jump\t// in\n    tag_21:\n      tag_23\n      jump\t// in\n    tag_20:\n      mload(0x40)\n      tag_24\n      swap2\n      swap1\n      tag_12\n      jump\t// in\n    tag_24:\n      mload(0x40)\n      dup1\n      swap2\n      sub\n      swap1\n      return\n        /* \"Mapping.sol\":1268:1328  mapping(address => mapping(address => uint256)) public debts */\n    tag_10:\n      mstore(0x20, 0x00)\n      dup2\n      0x00\n      mstore\n      mstore(0x20, keccak256(0x00, 0x40))\n      dup1\n      0x00\n      mstore\n      keccak256(0x00, 0x40)\n      0x00\n      swap2\n      pop\n      swap2\n      pop\n      pop\n      sload\n      dup2\n      jump\t// out\n        /* \"Mapping.sol\":1550:1741  function incDebt(address _borrower, uint256 _amount) public ... */\n    tag_16:\n        /* \"Mapping.sol\":1722:1729  _amount */\n      dup1\n        /* \"Mapping.sol\":1689:1694  debts */\n      0x00\n        /* \"Mapping.sol\":1689:1707  debts [msg.sender] */\n      dup1\n        /* \"Mapping.sol\":1696:1706  msg.sender */\n      caller\n        /* \"Mapping.sol\":1689:1707  debts [msg.sender] */\n      0xffffffffffffffffffffffffffffffffffffffff\n      and\n      0xffffffffffffffffffffffffffffffffffffffff\n      and\n      dup2\n      mstore\n      0x20\n      add\n      swap1\n      dup2\n      mstore\n      0x20\n      add\n      0x00\n      keccak256\n        /* \"Mapping.sol\":1689:1718  debts [msg.sender][_borrower] */\n      0x00\n        /* \"Mapping.sol\":1708:1717  _borrower */\n      dup5\n        /* \"Mapping.sol\":1689:1718  debts [msg.sender][_borrower] */\n      0xffffffffffffffffffffffffffffffffffffffff\n      and\n      0xffffffffffffffffffffffffffffffffffffffff\n      and\n      dup2\n      mstore\n      0x20\n      add\n      swap1\n      dup2\n      mstore\n      0x20\n      add\n      0x00\n      keccak256\n      0x00\n        /* \"Mapping.sol\":1689:1729  debts [msg.sender][_borrower] += _amount */\n      dup3\n      dup3\n      sload\n      tag_26\n      swap2\n      swap1\n      tag_27\n      jump\t// in\n    tag_26:\n      swap3\n      pop\n      pop\n      dup2\n      swap1\n      sstore\n      pop\n        /* \"Mapping.sol\":1550:1741  function incDebt(address _borrower, uint256 _amount) public ... */\n      pop\n      pop\n      jump\t// out\n        /* \"Mapping.sol\":1753:2085  function decDebt(address _borrower, uint256 _amount) public ... */\n    tag_19:\n        /* \"Mapping.sol\":1990:1997  _amount */\n      dup1\n        /* \"Mapping.sol\":1958:1963  debts */\n      0x00\n        /* \"Mapping.sol\":1958:1975  debts[msg.sender] */\n      dup1\n        /* \"Mapping.sol\":1964:1974  msg.sender */\n      caller\n        /* \"Mapping.sol\":1958:1975  debts[msg.sender] */\n      0xffffffffffffffffffffffffffffffffffffffff\n      and\n      0xffffffffffffffffffffffffffffffffffffffff\n      and\n      dup2\n      mstore\n      0x20\n      add\n      swap1\n      dup2\n      mstore\n      0x20\n      add\n      0x00\n      keccak256\n        /* \"Mapping.sol\":1958:1986  debts[msg.sender][_borrower] */\n      0x00\n        /* \"Mapping.sol\":1976:1985  _borrower */\n      dup5\n        /* \"Mapping.sol\":1958:1986  debts[msg.sender][_borrower] */\n      0xffffffffffffffffffffffffffffffffffffffff\n      and\n      0xffffffffffffffffffffffffffffffffffffffff\n      and\n      dup2\n      mstore\n      0x20\n      add\n      swap1\n      dup2\n      mstore\n      0x20\n      add\n      0x00\n      keccak256\n      sload\n        /* \"Mapping.sol\":1958:1997  debts[msg.sender][_borrower] >= _amount */\n      lt\n      iszero\n        /* \"Mapping.sol\":1950:2018  require(debts[msg.sender][_borrower] >= _amount, \"Not enough debt.\") */\n      tag_29\n      jumpi\n      mload(0x40)\n      0x08c379a000000000000000000000000000000000000000000000000000000000\n      dup2\n      mstore\n      0x04\n      add\n      tag_30\n      swap1\n      tag_31\n      jump\t// in\n    tag_30:\n      mload(0x40)\n      dup1\n      swap2\n      sub\n      swap1\n      revert\n    tag_29:\n        /* \"Mapping.sol\":2066:2073  _amount */\n      dup1\n        /* \"Mapping.sol\":2033:2038  debts */\n      0x00\n        /* \"Mapping.sol\":2033:2051  debts [msg.sender] */\n      dup1\n        /* \"Mapping.sol\":2040:2050  msg.sender */\n      caller\n        /* \"Mapping.sol\":2033:2051  debts [msg.sender] */\n      0xffffffffffffffffffffffffffffffffffffffff\n      and\n      0xffffffffffffffffffffffffffffffffffffffff\n      and\n      dup2\n      mstore\n      0x20\n      add\n      swap1\n      dup2\n      mstore\n      0x20\n      add\n      0x00\n      keccak256\n        /* \"Mapping.sol\":2033:2062  debts [msg.sender][_borrower] */\n      0x00\n        /* \"Mapping.sol\":2052:2061  _borrower */\n      dup5\n        /* \"Mapping.sol\":2033:2062  debts [msg.sender][_borrower] */\n      0xffffffffffffffffffffffffffffffffffffffff\n      and\n      0xffffffffffffffffffffffffffffffffffffffff\n      and\n      dup2\n      mstore\n      0x20\n      add\n      swap1\n      dup2\n      mstore\n      0x20\n      add\n      0x00\n      keccak256\n      0x00\n        /* \"Mapping.sol\":2033:2073  debts [msg.sender][_borrower] -= _amount */\n      dup3\n      dup3\n      sload\n      tag_32\n      swap2\n      swap1\n      tag_33\n      jump\t// in\n    tag_32:\n      swap3\n      pop\n      pop\n      dup2\n      swap1\n      sstore\n      pop\n        /* \"Mapping.sol\":1753:2085  function decDebt(address _borrower, uint256 _amount) public ... */\n      pop\n      pop\n      jump\t// out\n        /* \"Mapping.sol\":2097:2236  function getDebt(address _borrower) public view returns (uint256)... */\n    tag_23:\n        /* \"Mapping.sol\":2154:2161  uint256 */\n      0x00\n        /* \"Mapping.sol\":2194:2199  debts */\n      dup1\n        /* \"Mapping.sol\":2194:2212  debts [msg.sender] */\n      0x00\n        /* \"Mapping.sol\":2201:2211  msg.sender */\n      caller\n        /* \"Mapping.sol\":2194:2212  debts [msg.sender] */\n      0xffffffffffffffffffffffffffffffffffffffff\n      and\n      0xffffffffffffffffffffffffffffffffffffffff\n      and\n      dup2\n      mstore\n      0x20\n      add\n      swap1\n      dup2\n      mstore\n      0x20\n      add\n      0x00\n      keccak256\n        /* \"Mapping.sol\":2194:2224  debts [msg.sender] [_borrower] */\n      0x00\n        /* \"Mapping.sol\":2214:2223  _borrower */\n      dup4\n        /* \"Mapping.sol\":2194:2224  debts [msg.sender] [_borrower] */\n      0xffffffffffffffffffffffffffffffffffffffff\n      and\n      0xffffffffffffffffffffffffffffffffffffffff\n      and\n      dup2\n      mstore\n      0x20\n      add\n      swap1\n      dup2\n      mstore\n      0x20\n      add\n      0x00\n      keccak256\n      sload\n        /* \"Mapping.sol\":2187:2224  return debts [msg.sender] [_borrower] */\n      swap1\n      pop\n        /* \"Mapping.sol\":2097:2236  function getDebt(address _borrower) public view returns (uint256)... */\n      swap2\n      swap1\n      pop\n      jump\t// out\n        /* \"#utility.yul\":88:205   */\n    tag_36:\n        /* \"#utility.yul\":197:198   */\n      0x00\n        /* \"#utility.yul\":194:195   */\n      dup1\n        /* \"#utility.yul\":187:199   */\n      revert\n        /* \"#utility.yul\":334:460   */\n    tag_38:\n        /* \"#utility.yul\":371:378   */\n      0x00\n        /* \"#utility.yul\":411:453   */\n      0xffffffffffffffffffffffffffffffffffffffff\n        /* \"#utility.yul\":404:409   */\n      dup3\n        /* \"#utility.yul\":400:454   */\n      and\n        /* \"#utility.yul\":389:454   */\n      swap1\n      pop\n        /* \"#utility.yul\":334:460   */\n      swap2\n      swap1\n      pop\n      jump\t// out\n        /* \"#utility.yul\":466:562   */\n    tag_39:\n        /* \"#utility.yul\":503:510   */\n      0x00\n        /* \"#utility.yul\":532:556   */\n      tag_56\n        /* \"#utility.yul\":550:555   */\n      dup3\n        /* \"#utility.yul\":532:556   */\n      tag_38\n      jump\t// in\n    tag_56:\n        /* \"#utility.yul\":521:556   */\n      swap1\n      pop\n        /* \"#utility.yul\":466:562   */\n      swap2\n      swap1\n      pop\n      jump\t// out\n        /* \"#utility.yul\":568:690   */\n    tag_40:\n        /* \"#utility.yul\":641:665   */\n      tag_58\n        /* \"#utility.yul\":659:664   */\n      dup2\n        /* \"#utility.yul\":641:665   */\n      tag_39\n      jump\t// in\n    tag_58:\n        /* \"#utility.yul\":634:639   */\n      dup2\n        /* \"#utility.yul\":631:666   */\n      eq\n        /* \"#utility.yul\":621:684   */\n      tag_59\n      jumpi\n        /* \"#utility.yul\":680:681   */\n      0x00\n        /* \"#utility.yul\":677:678   */\n      dup1\n        /* \"#utility.yul\":670:682   */\n      revert\n        /* \"#utility.yul\":621:684   */\n    tag_59:\n        /* \"#utility.yul\":568:690   */\n      pop\n      jump\t// out\n        /* \"#utility.yul\":696:835   */\n    tag_41:\n        /* \"#utility.yul\":742:747   */\n      0x00\n        /* \"#utility.yul\":780:786   */\n      dup2\n        /* \"#utility.yul\":767:787   */\n      calldataload\n        /* \"#utility.yul\":758:787   */\n      swap1\n      pop\n        /* \"#utility.yul\":796:829   */\n      tag_61\n        /* \"#utility.yul\":823:828   */\n      dup2\n        /* \"#utility.yul\":796:829   */\n      tag_40\n      jump\t// in\n    tag_61:\n        /* \"#utility.yul\":696:835   */\n      swap3\n      swap2\n      pop\n      pop\n      jump\t// out\n        /* \"#utility.yul\":841:1315   */\n    tag_9:\n        /* \"#utility.yul\":909:915   */\n      0x00\n        /* \"#utility.yul\":917:923   */\n      dup1\n        /* \"#utility.yul\":966:968   */\n      0x40\n        /* \"#utility.yul\":954:963   */\n      dup4\n        /* \"#utility.yul\":945:952   */\n      dup6\n        /* \"#utility.yul\":941:964   */\n      sub\n        /* \"#utility.yul\":937:969   */\n      slt\n        /* \"#utility.yul\":934:1053   */\n      iszero\n      tag_63\n      jumpi\n        /* \"#utility.yul\":972:1051   */\n      tag_64\n      tag_36\n      jump\t// in\n    tag_64:\n        /* \"#utility.yul\":934:1053   */\n    tag_63:\n        /* \"#utility.yul\":1092:1093   */\n      0x00\n        /* \"#utility.yul\":1117:1170   */\n      tag_65\n        /* \"#utility.yul\":1162:1169   */\n      dup6\n        /* \"#utility.yul\":1153:1159   */\n      dup3\n        /* \"#utility.yul\":1142:1151   */\n      dup7\n        /* \"#utility.yul\":1138:1160   */\n      add\n        /* \"#utility.yul\":1117:1170   */\n      tag_41\n      jump\t// in\n    tag_65:\n        /* \"#utility.yul\":1107:1170   */\n      swap3\n      pop\n        /* \"#utility.yul\":1063:1180   */\n      pop\n        /* \"#utility.yul\":1219:1221   */\n      0x20\n        /* \"#utility.yul\":1245:1298   */\n      tag_66\n        /* \"#utility.yul\":1290:1297   */\n      dup6\n        /* \"#utility.yul\":1281:1287   */\n      dup3\n        /* \"#utility.yul\":1270:1279   */\n      dup7\n        /* \"#utility.yul\":1266:1288   */\n      add\n        /* \"#utility.yul\":1245:1298   */\n      tag_41\n      jump\t// in\n    tag_66:\n        /* \"#utility.yul\":1235:1298   */\n      swap2\n      pop\n        /* \"#utility.yul\":1190:1308   */\n      pop\n        /* \"#utility.yul\":841:1315   */\n      swap3\n      pop\n      swap3\n      swap1\n      pop\n      jump\t// out\n        /* \"#utility.yul\":1321:1398   */\n    tag_42:\n        /* \"#utility.yul\":1358:1365   */\n      0x00\n        /* \"#utility.yul\":1387:1392   */\n      dup2\n        /* \"#utility.yul\":1376:1392   */\n      swap1\n      pop\n        /* \"#utility.yul\":1321:1398   */\n      swap2\n      swap1\n      pop\n      jump\t// out\n        /* \"#utility.yul\":1404:1522   */\n    tag_43:\n        /* \"#utility.yul\":1491:1515   */\n      tag_69\n        /* \"#utility.yul\":1509:1514   */\n      dup2\n        /* \"#utility.yul\":1491:1515   */\n      tag_42\n      jump\t// in\n    tag_69:\n        /* \"#utility.yul\":1486:1489   */\n      dup3\n        /* \"#utility.yul\":1479:1516   */\n      mstore\n        /* \"#utility.yul\":1404:1522   */\n      pop\n      pop\n      jump\t// out\n        /* \"#utility.yul\":1528:1750   */\n    tag_12:\n        /* \"#utility.yul\":1621:1625   */\n      0x00\n        /* \"#utility.yul\":1659:1661   */\n      0x20\n        /* \"#utility.yul\":1648:1657   */\n      dup3\n        /* \"#utility.yul\":1644:1662   */\n      add\n        /* \"#utility.yul\":1636:1662   */\n      swap1\n      pop\n        /* \"#utility.yul\":1672:1743   */\n      tag_71\n        /* \"#utility.yul\":1740:1741   */\n      0x00\n        /* \"#utility.yul\":1729:1738   */\n      dup4\n        /* \"#utility.yul\":1725:1742   */\n      add\n        /* \"#utility.yul\":1716:1722   */\n      dup5\n        /* \"#utility.yul\":1672:1743   */\n      tag_43\n      jump\t// in\n    tag_71:\n        /* \"#utility.yul\":1528:1750   */\n      swap3\n      swap2\n      pop\n      pop\n      jump\t// out\n        /* \"#utility.yul\":1756:1878   */\n    tag_44:\n        /* \"#utility.yul\":1829:1853   */\n      tag_73\n        /* \"#utility.yul\":1847:1852   */\n      dup2\n        /* \"#utility.yul\":1829:1853   */\n      tag_42\n      jump\t// in\n    tag_73:\n        /* \"#utility.yul\":1822:1827   */\n      dup2\n        /* \"#utility.yul\":1819:1854   */\n      eq\n        /* \"#utility.yul\":1809:1872   */\n      tag_74\n      jumpi\n        /* \"#utility.yul\":1868:1869   */\n      0x00\n        /* \"#utility.yul\":1865:1866   */\n      dup1\n        /* \"#utility.yul\":1858:1870   */\n      revert\n        /* \"#utility.yul\":1809:1872   */\n    tag_74:\n        /* \"#utility.yul\":1756:1878   */\n      pop\n      jump\t// out\n        /* \"#utility.yul\":1884:2023   */\n    tag_45:\n        /* \"#utility.yul\":1930:1935   */\n      0x00\n        /* \"#utility.yul\":1968:1974   */\n      dup2\n        /* \"#utility.yul\":1955:1975   */\n      calldataload\n        /* \"#utility.yul\":1946:1975   */\n      swap1\n      pop\n        /* \"#utility.yul\":1984:2017   */\n      tag_76\n        /* \"#utility.yul\":2011:2016   */\n      dup2\n        /* \"#utility.yul\":1984:2017   */\n      tag_44\n      jump\t// in\n    tag_76:\n        /* \"#utility.yul\":1884:2023   */\n      swap3\n      swap2\n      pop\n      pop\n      jump\t// out\n        /* \"#utility.yul\":2029:2503   */\n    tag_15:\n        /* \"#utility.yul\":2097:2103   */\n      0x00\n        /* \"#utility.yul\":2105:2111   */\n      dup1\n        /* \"#utility.yul\":2154:2156   */\n      0x40\n        /* \"#utility.yul\":2142:2151   */\n      dup4\n        /* \"#utility.yul\":2133:2140   */\n      dup6\n        /* \"#utility.yul\":2129:2152   */\n      sub\n        /* \"#utility.yul\":2125:2157   */\n      slt\n        /* \"#utility.yul\":2122:2241   */\n      iszero\n      tag_78\n      jumpi\n        /* \"#utility.yul\":2160:2239   */\n      tag_79\n      tag_36\n      jump\t// in\n    tag_79:\n        /* \"#utility.yul\":2122:2241   */\n    tag_78:\n        /* \"#utility.yul\":2280:2281   */\n      0x00\n        /* \"#utility.yul\":2305:2358   */\n      tag_80\n        /* \"#utility.yul\":2350:2357   */\n      dup6\n        /* \"#utility.yul\":2341:2347   */\n      dup3\n        /* \"#utility.yul\":2330:2339   */\n      dup7\n        /* \"#utility.yul\":2326:2348   */\n      add\n        /* \"#utility.yul\":2305:2358   */\n      tag_41\n      jump\t// in\n    tag_80:\n        /* \"#utility.yul\":2295:2358   */\n      swap3\n      pop\n        /* \"#utility.yul\":2251:2368   */\n      pop\n        /* \"#utility.yul\":2407:2409   */\n      0x20\n        /* \"#utility.yul\":2433:2486   */\n      tag_81\n        /* \"#utility.yul\":2478:2485   */\n      dup6\n        /* \"#utility.yul\":2469:2475   */\n      dup3\n        /* \"#utility.yul\":2458:2467   */\n      dup7\n        /* \"#utility.yul\":2454:2476   */\n      add\n        /* \"#utility.yul\":2433:2486   */\n      tag_45\n      jump\t// in\n    tag_81:\n        /* \"#utility.yul\":2423:2486   */\n      swap2\n      pop\n        /* \"#utility.yul\":2378:2496   */\n      pop\n        /* \"#utility.yul\":2029:2503   */\n      swap3\n      pop\n      swap3\n      swap1\n      pop\n      jump\t// out\n        /* \"#utility.yul\":2509:2838   */\n    tag_22:\n        /* \"#utility.yul\":2568:2574   */\n      0x00\n        /* \"#utility.yul\":2617:2619   */\n      0x20\n        /* \"#utility.yul\":2605:2614   */\n      dup3\n        /* \"#utility.yul\":2596:2603   */\n      dup5\n        /* \"#utility.yul\":2592:2615   */\n      sub\n        /* \"#utility.yul\":2588:2620   */\n      slt\n        /* \"#utility.yul\":2585:2704   */\n      iszero\n      tag_83\n      jumpi\n        /* \"#utility.yul\":2623:2702   */\n      tag_84\n      tag_36\n      jump\t// in\n    tag_84:\n        /* \"#utility.yul\":2585:2704   */\n    tag_83:\n        /* \"#utility.yul\":2743:2744   */\n      0x00\n        /* \"#utility.yul\":2768:2821   */\n      tag_85\n        /* \"#utility.yul\":2813:2820   */\n      dup5\n        /* \"#utility.yul\":2804:2810   */\n      dup3\n        /* \"#utility.yul\":2793:2802   */\n      dup6\n        /* \"#utility.yul\":2789:2811   */\n      add\n        /* \"#utility.yul\":2768:2821   */\n      tag_41\n      jump\t// in\n    tag_85:\n        /* \"#utility.yul\":2758:2821   */\n      swap2\n      pop\n        /* \"#utility.yul\":2714:2831   */\n      pop\n        /* \"#utility.yul\":2509:2838   */\n      swap3\n      swap2\n      pop\n      pop\n      jump\t// out\n        /* \"#utility.yul\":2844:3024   */\n    tag_46:\n        /* \"#utility.yul\":2892:2969   */\n      0x4e487b7100000000000000000000000000000000000000000000000000000000\n        /* \"#utility.yul\":2889:2890   */\n      0x00\n        /* \"#utility.yul\":2882:2970   */\n      mstore\n        /* \"#utility.yul\":2989:2993   */\n      0x11\n        /* \"#utility.yul\":2986:2987   */\n      0x04\n        /* \"#utility.yul\":2979:2994   */\n      mstore\n        /* \"#utility.yul\":3013:3017   */\n      0x24\n        /* \"#utility.yul\":3010:3011   */\n      0x00\n        /* \"#utility.yul\":3003:3018   */\n      revert\n        /* \"#utility.yul\":3030:3221   */\n    tag_27:\n        /* \"#utility.yul\":3070:3073   */\n      0x00\n        /* \"#utility.yul\":3089:3109   */\n      tag_88\n        /* \"#utility.yul\":3107:3108   */\n      dup3\n        /* \"#utility.yul\":3089:3109   */\n      tag_42\n      jump\t// in\n    tag_88:\n        /* \"#utility.yul\":3084:3109   */\n      swap2\n      pop\n        /* \"#utility.yul\":3123:3143   */\n      tag_89\n        /* \"#utility.yul\":3141:3142   */\n      dup4\n        /* \"#utility.yul\":3123:3143   */\n      tag_42\n      jump\t// in\n    tag_89:\n        /* \"#utility.yul\":3118:3143   */\n      swap3\n      pop\n        /* \"#utility.yul\":3166:3167   */\n      dup3\n        /* \"#utility.yul\":3163:3164   */\n      dup3\n        /* \"#utility.yul\":3159:3168   */\n      add\n        /* \"#utility.yul\":3152:3168   */\n      swap1\n      pop\n        /* \"#utility.yul\":3187:3190   */\n      dup1\n        /* \"#utility.yul\":3184:3185   */\n      dup3\n        /* \"#utility.yul\":3181:3191   */\n      gt\n        /* \"#utility.yul\":3178:3214   */\n      iszero\n      tag_90\n      jumpi\n        /* \"#utility.yul\":3194:3212   */\n      tag_91\n      tag_46\n      jump\t// in\n    tag_91:\n        /* \"#utility.yul\":3178:3214   */\n    tag_90:\n        /* \"#utility.yul\":3030:3221   */\n      swap3\n      swap2\n      pop\n      pop\n      jump\t// out\n        /* \"#utility.yul\":3227:3396   */\n    tag_47:\n        /* \"#utility.yul\":3311:3322   */\n      0x00\n        /* \"#utility.yul\":3345:3351   */\n      dup3\n        /* \"#utility.yul\":3340:3343   */\n      dup3\n        /* \"#utility.yul\":3333:3352   */\n      mstore\n        /* \"#utility.yul\":3385:3389   */\n      0x20\n        /* \"#utility.yul\":3380:3383   */\n      dup3\n        /* \"#utility.yul\":3376:3390   */\n      add\n        /* \"#utility.yul\":3361:3390   */\n      swap1\n      pop\n        /* \"#utility.yul\":3227:3396   */\n      swap3\n      swap2\n      pop\n      pop\n      jump\t// out\n        /* \"#utility.yul\":3402:3568   */\n    tag_48:\n        /* \"#utility.yul\":3542:3560   */\n      0x4e6f7420656e6f75676820646562742e00000000000000000000000000000000\n        /* \"#utility.yul\":3538:3539   */\n      0x00\n        /* \"#utility.yul\":3530:3536   */\n      dup3\n        /* \"#utility.yul\":3526:3540   */\n      add\n        /* \"#utility.yul\":3519:3561   */\n      mstore\n        /* \"#utility.yul\":3402:3568   */\n      pop\n      jump\t// out\n        /* \"#utility.yul\":3574:3940   */\n    tag_49:\n        /* \"#utility.yul\":3716:3719   */\n      0x00\n        /* \"#utility.yul\":3737:3804   */\n      tag_95\n        /* \"#utility.yul\":3801:3803   */\n      0x10\n        /* \"#utility.yul\":3796:3799   */\n      dup4\n        /* \"#utility.yul\":3737:3804   */\n      tag_47\n      jump\t// in\n    tag_95:\n        /* \"#utility.yul\":3730:3804   */\n      swap2\n      pop\n        /* \"#utility.yul\":3813:3906   */\n      tag_96\n        /* \"#utility.yul\":3902:3905   */\n      dup3\n        /* \"#utility.yul\":3813:3906   */\n      tag_48\n      jump\t// in\n    tag_96:\n        /* \"#utility.yul\":3931:3933   */\n      0x20\n        /* \"#utility.yul\":3926:3929   */\n      dup3\n        /* \"#utility.yul\":3922:3934   */\n      add\n        /* \"#utility.yul\":3915:3934   */\n      swap1\n      pop\n        /* \"#utility.yul\":3574:3940   */\n      swap2\n      swap1\n      pop\n      jump\t// out\n        /* \"#utility.yul\":3946:4365   */\n    tag_31:\n        /* \"#utility.yul\":4112:4116   */\n      0x00\n        /* \"#utility.yul\":4150:4152   */\n      0x20\n        /* \"#utility.yul\":4139:4148   */\n      dup3\n        /* \"#utility.yul\":4135:4153   */\n      add\n        /* \"#utility.yul\":4127:4153   */\n      swap1\n      pop\n        /* \"#utility.yul\":4199:4208   */\n      dup2\n        /* \"#utility.yul\":4193:4197   */\n      dup2\n        /* \"#utility.yul\":4189:4209   */\n      sub\n        /* \"#utility.yul\":4185:4186   */\n      0x00\n        /* \"#utility.yul\":4174:4183   */\n      dup4\n        /* \"#utility.yul\":4170:4187   */\n      add\n        /* \"#utility.yul\":4163:4210   */\n      mstore\n        /* \"#utility.yul\":4227:4358   */\n      tag_98\n        /* \"#utility.yul\":4353:4357   */\n      dup2\n        /* \"#utility.yul\":4227:4358   */\n      tag_49\n      jump\t// in\n    tag_98:\n        /* \"#utility.yul\":4219:4358   */\n      swap1\n      pop\n        /* \"#utility.yul\":3946:4365   */\n      swap2\n      swap1\n      pop\n      jump\t// out\n        /* \"#utility.yul\":4371:4565   */\n    tag_33:\n        /* \"#utility.yul\":4411:4415   */\n      0x00\n        /* \"#utility.yul\":4431:4451   */\n      tag_100\n        /* \"#utility.yul\":4449:4450   */\n      dup3\n        /* \"#utility.yul\":4431:4451   */\n      tag_42\n      jump\t// in\n    tag_100:\n        /* \"#utility.yul\":4426:4451   */\n      swap2\n      pop\n        /* \"#utility.yul\":4465:4485   */\n      tag_101\n        /* \"#utility.yul\":4483:4484   */\n      dup4\n        /* \"#utility.yul\":4465:4485   */\n      tag_42\n      jump\t// in\n    tag_101:\n        /* \"#utility.yul\":4460:4485   */\n      swap3\n      pop\n        /* \"#utility.yul\":4509:4510   */\n      dup3\n        /* \"#utility.yul\":4506:4507   */\n      dup3\n        /* \"#utility.yul\":4502:4511   */\n      sub\n        /* \"#utility.yul\":4494:4511   */\n      swap1\n      pop\n        /* \"#utility.yul\":4533:4534   */\n      dup2\n        /* \"#utility.yul\":4527:4531   */\n      dup2\n        /* \"#utility.yul\":4524:4535   */\n      gt\n        /* \"#utility.yul\":4521:4558   */\n      iszero\n      tag_102\n      jumpi\n        /* \"#utility.yul\":4538:4556   */\n      tag_103\n      tag_46\n      jump\t// in\n    tag_103:\n        /* \"#utility.yul\":4521:4558   */\n    tag_102:\n        /* \"#utility.yul\":4371:4565   */\n      swap3\n      swap2\n      pop\n      pop\n      jump\t// out\n\n    auxdata: 0xa264697066735822122062e1163833a912c48b245537e109648511f4770cb7e908551e3fcbad169d994f64736f6c634300081a0033\n}\n",
				"bytecode": {
					"linkReferences": {},
					"object": "6080604052348015600e575f80fd5b506106028061001c5f395ff3fe608060405234801561000f575f80fd5b506004361061004a575f3560e01c80634ac1c33d1461004e5780638d1e48da1461007e578063938698a91461009a5780639a78e72e146100b6575b5f80fd5b610068600480360381019061006391906103bf565b6100e6565b6040516100759190610415565b60405180910390f35b61009860048036038101906100939190610458565b610105565b005b6100b460048036038101906100af9190610458565b610196565b005b6100d060048036038101906100cb9190610496565b6102e1565b6040516100dd9190610415565b60405180910390f35b5f602052815f5260405f20602052805f5260405f205f91509150505481565b805f803373ffffffffffffffffffffffffffffffffffffffff1673ffffffffffffffffffffffffffffffffffffffff1681526020019081526020015f205f8473ffffffffffffffffffffffffffffffffffffffff1673ffffffffffffffffffffffffffffffffffffffff1681526020019081526020015f205f82825461018b91906104ee565b925050819055505050565b805f803373ffffffffffffffffffffffffffffffffffffffff1673ffffffffffffffffffffffffffffffffffffffff1681526020019081526020015f205f8473ffffffffffffffffffffffffffffffffffffffff1673ffffffffffffffffffffffffffffffffffffffff1681526020019081526020015f20541015610250576040517f08c379a00000000000000000000000000000000000000000000000000000000081526004016102479061057b565b60405180910390fd5b805f803373ffffffffffffffffffffffffffffffffffffffff1673ffffffffffffffffffffffffffffffffffffffff1681526020019081526020015f205f8473ffffffffffffffffffffffffffffffffffffffff1673ffffffffffffffffffffffffffffffffffffffff1681526020019081526020015f205f8282546102d69190610599565b925050819055505050565b5f805f3373ffffffffffffffffffffffffffffffffffffffff1673ffffffffffffffffffffffffffffffffffffffff1681526020019081526020015f205f8373ffffffffffffffffffffffffffffffffffffffff1673ffffffffffffffffffffffffffffffffffffffff1681526020019081526020015f20549050919050565b5f80fd5b5f73ffffffffffffffffffffffffffffffffffffffff82169050919050565b5f61038e82610365565b9050919050565b61039e81610384565b81146103a8575f80fd5b50565b5f813590506103b981610395565b92915050565b5f80604083850312156103d5576103d4610361565b5b5f6103e2858286016103ab565b92505060206103f3858286016103ab565b9150509250929050565b5f819050919050565b61040f816103fd565b82525050565b5f6020820190506104285f830184610406565b92915050565b610437816103fd565b8114610441575f80fd5b50565b5f813590506104528161042e565b92915050565b5f806040838503121561046e5761046d610361565b5b5f61047b858286016103ab565b925050602061048c85828601610444565b9150509250929050565b5f602082840312156104ab576104aa610361565b5b5f6104b8848285016103ab565b91505092915050565b7f4e487b71000000000000000000000000000000000000000000000000000000005f52601160045260245ffd5b5f6104f8826103fd565b9150610503836103fd565b925082820190508082111561051b5761051a6104c1565b5b92915050565b5f82825260208201905092915050565b7f4e6f7420656e6f75676820646562742e000000000000000000000000000000005f82015250565b5f610565601083610521565b915061057082610531565b602082019050919050565b5f6020820190508181035f83015261059281610559565b9050919050565b5f6105a3826103fd565b91506105ae836103fd565b92508282039050818111156105c6576105c56104c1565b5b9291505056fea264697066735822122062e1163833a912c48b245537e109648511f4770cb7e908551e3fcbad169d994f64736f6c634300081a0033",
					"opcodes": "PUSH1 0x80 PUSH1 0x40 MSTORE CALLVALUE DUP1 ISZERO PUSH1 0xE JUMPI PUSH0 DUP1 REVERT JUMPDEST POP PUSH2 0x602 DUP1 PUSH2 0x1C PUSH0 CODECOPY PUSH0 RETURN INVALID PUSH1 0x80 PUSH1 0x40 MSTORE CALLVALUE DUP1 ISZERO PUSH2 0xF JUMPI PUSH0 DUP1 REVERT JUMPDEST POP PUSH1 0x4 CALLDATASIZE LT PUSH2 0x4A JUMPI PUSH0 CALLDATALOAD PUSH1 0xE0 SHR DUP1 PUSH4 0x4AC1C33D EQ PUSH2 0x4E JUMPI DUP1 PUSH4 0x8D1E48DA EQ PUSH2 0x7E JUMPI DUP1 PUSH4 0x938698A9 EQ PUSH2 0x9A JUMPI DUP1 PUSH4 0x9A78E72E EQ PUSH2 0xB6 JUMPI JUMPDEST PUSH0 DUP1 REVERT JUMPDEST PUSH2 0x68 PUSH1 0x4 DUP1 CALLDATASIZE SUB DUP2 ADD SWAP1 PUSH2 0x63 SWAP2 SWAP1 PUSH2 0x3BF JUMP JUMPDEST PUSH2 0xE6 JUMP JUMPDEST PUSH1 0x40 MLOAD PUSH2 0x75 SWAP2 SWAP1 PUSH2 0x415 JUMP JUMPDEST PUSH1 0x40 MLOAD DUP1 SWAP2 SUB SWAP1 RETURN JUMPDEST PUSH2 0x98 PUSH1 0x4 DUP1 CALLDATASIZE SUB DUP2 ADD SWAP1 PUSH2 0x93 SWAP2 SWAP1 PUSH2 0x458 JUMP JUMPDEST PUSH2 0x105 JUMP JUMPDEST STOP JUMPDEST PUSH2 0xB4 PUSH1 0x4 DUP1 CALLDATASIZE SUB DUP2 ADD SWAP1 PUSH2 0xAF SWAP2 SWAP1 PUSH2 0x458 JUMP JUMPDEST PUSH2 0x196 JUMP JUMPDEST STOP JUMPDEST PUSH2 0xD0 PUSH1 0x4 DUP1 CALLDATASIZE SUB DUP2 ADD SWAP1 PUSH2 0xCB SWAP2 SWAP1 PUSH2 0x496 JUMP JUMPDEST PUSH2 0x2E1 JUMP JUMPDEST PUSH1 0x40 MLOAD PUSH2 0xDD SWAP2 SWAP1 PUSH2 0x415 JUMP JUMPDEST PUSH1 0x40 MLOAD DUP1 SWAP2 SUB SWAP1 RETURN JUMPDEST PUSH0 PUSH1 0x20 MSTORE DUP2 PUSH0 MSTORE PUSH1 0x40 PUSH0 KECCAK256 PUSH1 0x20 MSTORE DUP1 PUSH0 MSTORE PUSH1 0x40 PUSH0 KECCAK256 PUSH0 SWAP2 POP SWAP2 POP POP SLOAD DUP2 JUMP JUMPDEST DUP1 PUSH0 DUP1 CALLER PUSH20 0xFFFFFFFFFFFFFFFFFFFFFFFFFFFFFFFFFFFFFFFF AND PUSH20 0xFFFFFFFFFFFFFFFFFFFFFFFFFFFFFFFFFFFFFFFF AND DUP2 MSTORE PUSH1 0x20 ADD SWAP1 DUP2 MSTORE PUSH1 0x20 ADD PUSH0 KECCAK256 PUSH0 DUP5 PUSH20 0xFFFFFFFFFFFFFFFFFFFFFFFFFFFFFFFFFFFFFFFF AND PUSH20 0xFFFFFFFFFFFFFFFFFFFFFFFFFFFFFFFFFFFFFFFF AND DUP2 MSTORE PUSH1 0x20 ADD SWAP1 DUP2 MSTORE PUSH1 0x20 ADD PUSH0 KECCAK256 PUSH0 DUP3 DUP3 SLOAD PUSH2 0x18B SWAP2 SWAP1 PUSH2 0x4EE JUMP JUMPDEST SWAP3 POP POP DUP2 SWAP1 SSTORE POP POP POP JUMP JUMPDEST DUP1 PUSH0 DUP1 CALLER PUSH20 0xFFFFFFFFFFFFFFFFFFFFFFFFFFFFFFFFFFFFFFFF AND PUSH20 0xFFFFFFFFFFFFFFFFFFFFFFFFFFFFFFFFFFFFFFFF AND DUP2 MSTORE PUSH1 0x20 ADD SWAP1 DUP2 MSTORE PUSH1 0x20 ADD PUSH0 KECCAK256 PUSH0 DUP5 PUSH20 0xFFFFFFFFFFFFFFFFFFFFFFFFFFFFFFFFFFFFFFFF AND PUSH20 0xFFFFFFFFFFFFFFFFFFFFFFFFFFFFFFFFFFFFFFFF AND DUP2 MSTORE PUSH1 0x20 ADD SWAP1 DUP2 MSTORE PUSH1 0x20 ADD PUSH0 KECCAK256 SLOAD LT ISZERO PUSH2 0x250 JUMPI PUSH1 0x40 MLOAD PUSH32 0x8C379A000000000000000000000000000000000000000000000000000000000 DUP2 MSTORE PUSH1 0x4 ADD PUSH2 0x247 SWAP1 PUSH2 0x57B JUMP JUMPDEST PUSH1 0x40 MLOAD DUP1 SWAP2 SUB SWAP1 REVERT JUMPDEST DUP1 PUSH0 DUP1 CALLER PUSH20 0xFFFFFFFFFFFFFFFFFFFFFFFFFFFFFFFFFFFFFFFF AND PUSH20 0xFFFFFFFFFFFFFFFFFFFFFFFFFFFFFFFFFFFFFFFF AND DUP2 MSTORE PUSH1 0x20 ADD SWAP1 DUP2 MSTORE PUSH1 0x20 ADD PUSH0 KECCAK256 PUSH0 DUP5 PUSH20 0xFFFFFFFFFFFFFFFFFFFFFFFFFFFFFFFFFFFFFFFF AND PUSH20 0xFFFFFFFFFFFFFFFFFFFFFFFFFFFFFFFFFFFFFFFF AND DUP2 MSTORE PUSH1 0x20 ADD SWAP1 DUP2 MSTORE PUSH1 0x20 ADD PUSH0 KECCAK256 PUSH0 DUP3 DUP3 SLOAD PUSH2 0x2D6 SWAP2 SWAP1 PUSH2 0x599 JUMP JUMPDEST SWAP3 POP POP DUP2 SWAP1 SSTORE POP POP POP JUMP JUMPDEST PUSH0 DUP1 PUSH0 CALLER PUSH20 0xFFFFFFFFFFFFFFFFFFFFFFFFFFFFFFFFFFFFFFFF AND PUSH20 0xFFFFFFFFFFFFFFFFFFFFFFFFFFFFFFFFFFFFFFFF AND DUP2 MSTORE PUSH1 0x20 ADD SWAP1 DUP2 MSTORE PUSH1 0x20 ADD PUSH0 KECCAK256 PUSH0 DUP4 PUSH20 0xFFFFFFFFFFFFFFFFFFFFFFFFFFFFFFFFFFFFFFFF AND PUSH20 0xFFFFFFFFFFFFFFFFFFFFFFFFFFFFFFFFFFFFFFFF AND DUP2 MSTORE PUSH1 0x20 ADD SWAP1 DUP2 MSTORE PUSH1 0x20 ADD PUSH0 KECCAK256 SLOAD SWAP1 POP SWAP2 SWAP1 POP JUMP JUMPDEST PUSH0 DUP1 REVERT JUMPDEST PUSH0 PUSH20 0xFFFFFFFFFFFFFFFFFFFFFFFFFFFFFFFFFFFFFFFF DUP3 AND SWAP1 POP SWAP2 SWAP1 POP JUMP JUMPDEST PUSH0 PUSH2 0x38E DUP3 PUSH2 0x365 JUMP JUMPDEST SWAP1 POP SWAP2 SWAP1 POP JUMP JUMPDEST PUSH2 0x39E DUP2 PUSH2 0x384 JUMP JUMPDEST DUP2 EQ PUSH2 0x3A8 JUMPI PUSH0 DUP1 REVERT JUMPDEST POP JUMP JUMPDEST PUSH0 DUP2 CALLDATALOAD SWAP1 POP PUSH2 0x3B9 DUP2 PUSH2 0x395 JUMP JUMPDEST SWAP3 SWAP2 POP POP JUMP JUMPDEST PUSH0 DUP1 PUSH1 0x40 DUP4 DUP6 SUB SLT ISZERO PUSH2 0x3D5 JUMPI PUSH2 0x3D4 PUSH2 0x361 JUMP JUMPDEST JUMPDEST PUSH0 PUSH2 0x3E2 DUP6 DUP3 DUP7 ADD PUSH2 0x3AB JUMP JUMPDEST SWAP3 POP POP PUSH1 0x20 PUSH2 0x3F3 DUP6 DUP3 DUP7 ADD PUSH2 0x3AB JUMP JUMPDEST SWAP2 POP POP SWAP3 POP SWAP3 SWAP1 POP JUMP JUMPDEST PUSH0 DUP2 SWAP1 POP SWAP2 SWAP1 POP JUMP JUMPDEST PUSH2 0x40F DUP2 PUSH2 0x3FD JUMP JUMPDEST DUP3 MSTORE POP POP JUMP JUMPDEST PUSH0 PUSH1 0x20 DUP3 ADD SWAP1 POP PUSH2 0x428 PUSH0 DUP4 ADD DUP5 PUSH2 0x406 JUMP JUMPDEST SWAP3 SWAP2 POP POP JUMP JUMPDEST PUSH2 0x437 DUP2 PUSH2 0x3FD JUMP JUMPDEST DUP2 EQ PUSH2 0x441 JUMPI PUSH0 DUP1 REVERT JUMPDEST POP JUMP JUMPDEST PUSH0 DUP2 CALLDATALOAD SWAP1 POP PUSH2 0x452 DUP2 PUSH2 0x42E JUMP JUMPDEST SWAP3 SWAP2 POP POP JUMP JUMPDEST PUSH0 DUP1 PUSH1 0x40 DUP4 DUP6 SUB SLT ISZERO PUSH2 0x46E JUMPI PUSH2 0x46D PUSH2 0x361 JUMP JUMPDEST JUMPDEST PUSH0 PUSH2 0x47B DUP6 DUP3 DUP7 ADD PUSH2 0x3AB JUMP JUMPDEST SWAP3 POP POP PUSH1 0x20 PUSH2 0x48C DUP6 DUP3 DUP7 ADD PUSH2 0x444 JUMP JUMPDEST SWAP2 POP POP SWAP3 POP SWAP3 SWAP1 POP JUMP JUMPDEST PUSH0 PUSH1 0x20 DUP3 DUP5 SUB SLT ISZERO PUSH2 0x4AB JUMPI PUSH2 0x4AA PUSH2 0x361 JUMP JUMPDEST JUMPDEST PUSH0 PUSH2 0x4B8 DUP5 DUP3 DUP6 ADD PUSH2 0x3AB JUMP JUMPDEST SWAP2 POP POP SWAP3 SWAP2 POP POP JUMP JUMPDEST PUSH32 0x4E487B7100000000000000000000000000000000000000000000000000000000 PUSH0 MSTORE PUSH1 0x11 PUSH1 0x4 MSTORE PUSH1 0x24 PUSH0 REVERT JUMPDEST PUSH0 PUSH2 0x4F8 DUP3 PUSH2 0x3FD JUMP JUMPDEST SWAP2 POP PUSH2 0x503 DUP4 PUSH2 0x3FD JUMP JUMPDEST SWAP3 POP DUP3 DUP3 ADD SWAP1 POP DUP1 DUP3 GT ISZERO PUSH2 0x51B JUMPI PUSH2 0x51A PUSH2 0x4C1 JUMP JUMPDEST JUMPDEST SWAP3 SWAP2 POP POP JUMP JUMPDEST PUSH0 DUP3 DUP3 MSTORE PUSH1 0x20 DUP3 ADD SWAP1 POP SWAP3 SWAP2 POP POP JUMP JUMPDEST PUSH32 0x4E6F7420656E6F75676820646562742E00000000000000000000000000000000 PUSH0 DUP3 ADD MSTORE POP JUMP JUMPDEST PUSH0 PUSH2 0x565 PUSH1 0x10 DUP4 PUSH2 0x521 JUMP JUMPDEST SWAP2 POP PUSH2 0x570 DUP3 PUSH2 0x531 JUMP JUMPDEST PUSH1 0x20 DUP3 ADD SWAP1 POP SWAP2 SWAP1 POP JUMP JUMPDEST PUSH0 PUSH1 0x20 DUP3 ADD SWAP1 POP DUP2 DUP2 SUB PUSH0 DUP4 ADD MSTORE PUSH2 0x592 DUP2 PUSH2 0x559 JUMP JUMPDEST SWAP1 POP SWAP2 SWAP1 POP JUMP JUMPDEST PUSH0 PUSH2 0x5A3 DUP3 PUSH2 0x3FD JUMP JUMPDEST SWAP2 POP PUSH2 0x5AE DUP4 PUSH2 0x3FD JUMP JUMPDEST SWAP3 POP DUP3 DUP3 SUB SWAP1 POP DUP2 DUP2 GT ISZERO PUSH2 0x5C6 JUMPI PUSH2 0x5C5 PUSH2 0x4C1 JUMP JUMPDEST JUMPDEST SWAP3 SWAP2 POP POP JUMP INVALID LOG2 PUSH5 0x6970667358 0x22 SLT KECCAK256 PUSH3 0xE11638 CALLER 0xA9 SLT 0xC4 DUP12 0x24 SSTORE CALLDATACOPY 0xE1 MULMOD PUSH5 0x8511F4770C 0xB7 0xE9 ADDMOD SSTORE 0x1E EXTCODEHASH 0xCB 0xAD AND SWAP14 SWAP10 0x4F PUSH5 0x736F6C6343 STOP ADDMOD BYTE STOP CALLER "
				},
				"gasEstimates": {
					"creation": {
						"codeDepositCost": "307600",
						"executionCost": "347",
						"totalCost": "307947"
					},
					"external": {
						"debts(address,address)": "infinite",
						"decDebt(address,uint256)": "infinite",
						"getDebt(address)": "2960",
						"incDebt(address,uint256)": "infinite"
					}
				},
				"methodIdentifiers": {
					"debts(address,address)": "4ac1c33d",
					"decDebt(address,uint256)": "938698a9",
					"getDebt(address)": "9a78e72e",
					"incDebt(address,uint256)": "8d1e48da"
				}
			},
			"storageLayout": {
				"storage": [
					{
						"astId": 87,
						"contract": "Mapping.sol:NestedMapping",
						"label": "debts",
						"offset": 0,
						"slot": "0",
						"type": "t_mapping(t_address,t_mapping(t_address,t_uint256))"
					}
				],
				"types": {
					"t_address": {
						"encoding": "inplace",
						"label": "address",
						"numberOfBytes": "20"
					},
					"t_mapping(t_address,t_mapping(t_address,t_uint256))": {
						"encoding": "mapping",
						"key": "t_address",
						"label": "mapping(address => mapping(address => uint256))",
						"numberOfBytes": "32",
						"value": "t_mapping(t_address,t_uint256)"
					},
					"t_mapping(t_address,t_uint256)": {
						"encoding": "mapping",
						"key": "t_address",
						"label": "mapping(address => uint256)",
						"numberOfBytes": "32",
						"value": "t_uint256"
					},
					"t_uint256": {
						"encoding": "inplace",
						"label": "uint256",
						"numberOfBytes": "32"
					}
				}
			},
			"userdoc": {
				"kind": "user",
				"methods": {},
				"version": 1
			}
		}
	}
}